:0400000007EF00F016
:0A0008007C82AFED0EF0ACEF14F0B7
:10100000003738392F3435362A3132332D23383DE5
:101010002B6C6564206F66660D006C6564206F6ED6
:101020000D0025690000000E3D6E000E3E6E000EA4
:101030003F6E000E406E37EF0AF0AC98B896AC9455
:1010400039C0D9FF3AC0DAFFDECF02F0DECF03F0BD
:10105000DECF04F0DECF05F0000E12EC10F002C07F
:1010600014F003C015F004C016F005C017F0000E10
:10107000106E240E116EF40E126E4A0E136EE2EC18
:101080000CF010C041F011C042F012C043F013C088
:1010900044F0000E146E000E156E800E166E420E99
:1010A000176E41C010F042C011F043C012F044C0AE
:1010B00013F0E2EC0CF010C029F011C02AF012C0BD
:1010C0002BF013C02CF0000E2D6E000E2E6E800E35
:1010D0002F6EBF0E306E82EC0AF029C03DF02AC0A0
:1010E0003EF02BC03FF02CC040F062EF0AF0AC980D
:1010F000B896AC8439C0D9FF3AC0DAFFDECF02F02F
:10110000DECF03F0DECF04F0DECF05F0000E12ECF0
:1011100010F002C014F003C015F004C016F005C0B2
:1011200017F0000E106E240E116EF40E126E4A0EA1
:10113000136EE2EC0CF010C041F011C042F012C08E
:1011400043F013C044F0000E146E000E156E800EB6
:10115000166E410E176E41C010F042C011F043C030
:1011600012F044C013F0E2EC0CF010C029F011C0F2
:101170002AF012C02BF013C02CF0000E2D6E000EC2
:101180002E6E800E2F6EBF0E306E82EC0AF029C0DC
:101190003DF02AC03EF02BC03FF02CC040F062EF83
:1011A0000AF0AC98B886AC9439C0D9FF3AC0DAFFDF
:1011B000DECF02F0DECF03F0DECF04F0DECF05F0AD
:1011C000000E12EC10F002C014F003C015F004C0C1
:1011D00016F005C017F0000E106E240E116EF40EFE
:1011E000126E4A0E136EE2EC0CF010C041F011C00A
:1011F00042F012C043F013C044F0000E146E000E13
:10120000156E800E166E410E176E41C010F042C072
:1012100011F043C012F044C013F0E2EC0CF010C027
:1012200029F011C02AF012C02BF013C02CF0000ED0
:101230002D6E000E2E6E800E2F6EBF0E306E82EC65
:101240000AF029C03DF02AC03EF02BC03FF02CC070
:1012500040F062EF0AF0AC98B886AC8439C0D9FF90
:101260003AC0DAFFDECF02F0DECF03F0DECF04F0CB
:10127000DECF05F0000E12EC10F002C014F003C037
:1012800015F004C016F005C017F0000E106E240E05
:10129000116EF40E126E4A0E136EE2EC0CF010C0DA
:1012A00041F011C042F012C043F013C044F0000EF0
:1012B000146E000E156E800E166E400E176E41C035
:1012C00010F042C011F043C012F044C013F0E2EC41
:1012D0000CF010C029F011C02AF012C02BF013C07E
:1012E0002CF0000E2D6E000E2E6E800E2F6EBF0E97
:1012F000306E82EC0AF029C03DF02AC03EF02BC0CF
:101300003FF02CC040F062EF0AF0AC88B88639C0DC
:10131000D9FF3AC0DAFFDECF02F0DECF03F0DECF36
:1013200004F0DECF05F0000E12EC10F002C014F055
:1013300003C015F004C016F005C017F0000E106EC3
:10134000240E116EF40E126E4A0E136EE2EC0CF0C7
:1013500010C041F011C042F012C043F013C044F07D
:10136000000E146E000E156E800E166E400E176E77
:1013700041C010F042C011F043C012F044C013F05D
:10138000E2EC0CF010C029F011C02AF012C02BF0D2
:1013900013C02CF0000E2D6E000E2E6E800E2F6EE0
:1013A000BF0E306E82EC0AF029C03DF02AC03EF03C
:1013B0002BC03FF02CC040F062EF0AF0AC88B8962A
:1013C00039C0D9FF3AC0DAFFDECF02F0DECF03F03A
:1013D000DECF04F0DECF05F0000E12EC10F002C0FC
:1013E00014F003C015F004C016F005C017F0000E8D
:1013F000106E240E116EF40E126E4A0E136EE2EC95
:101400000CF010C041F011C042F012C043F013C004
:1014100044F0000E146E000E156E800E166E400E17
:10142000176E41C010F042C011F043C012F044C02A
:1014300013F0E2EC0CF010C029F011C02AF012C039
:101440002BF013C02CF0000E2D6E000E2E6E800EB1
:101450002F6EBF0E306E82EC0AF029C03DF02AC01C
:101460003EF02BC03FF02CC040F062EF0AF020EEBF
:1014700004F03950D9263A50DA22DF503B6E3C6AEC
:101480003C50000AD8B447EF0AF062EF0AF03B5034
:10149000000AD8B41DEF08F0010AD8B477EF08F0BD
:1014A000030AD8B4D1EF08F0010AD8B42BEF09F041
:1014B000070AD8B485EF09F0010AD8B4DEEF09F0C5
:1014C00062EF0AF03DC002F03EC003F03FC004F0FE
:1014D00040C005F024EC12F00250AF6E3DC002F0A7
:1014E0003EC003F03FC004F040C005F024EC12F011
:1014F00003C002F004C003F005C004F0056A025006
:10150000B06E12002C50800B356E2C502C24376E90
:101510002BAE8DEF0AF08FEF0AF090EF0AF03780D4
:101520003750D8B496EF0AF098EF0AF0ADEF0AF012
:101530003728D8A49EEF0AF0A0EF0AF0A8EF0AF02F
:10154000000E296E000E2A6E000E2B6E000E2C6E01
:101550002B8E000E2C6EB5EF0AF0000E296E000ED9
:101560002A6E000E2B6E000E2C6E3050800B366EE5
:1015700035503618D8B4BFEF0AF0C1EF0AF0C2EF09
:101580000AF0358C30503024366E2FAECAEF0AF098
:10159000CCEF0AF0CDEF0AF036803650D8B4D3EF56
:1015A0000AF0D5EF0AF0EAEF0AF03628D8A4DBEF0C
:1015B0000AF0DDEF0AF0E5EF0AF0000E2D6E000EE6
:1015C0002E6E000E2F6E000E306E2F8E000E306EBF
:1015D000F2EF0AF0000E2D6E000E2E6E000E2F6E32
:1015E000000E306E3750365CD8B0F9EF0AF0FBEFE2
:1015F0000AF022EF0BF035AC00EF0BF002EF0BF02E
:1016000004EF0BF0800E351A37C038F036C037F0D3
:1016100038C036F029C038F02DC029F038C02DF080
:101620002AC038F02EC02AF038C02EF02BC038F077
:101630002FC02BF038C02FF02CC038F030C02CF069
:1016400038C030F0000E386E375036C031F0326A94
:10165000315E000E325A32BE37EF0BF0325009E1E4
:101660001A0E315CD8A037EF0BF039EF0BF070EFAA
:101670000BF029502A102B102C10D8A442EF0BF09D
:1016800045EF0BF0010E46EF0BF0000E386E000E2A
:10169000296E000E2A6E000E2B6E000E2C6E36C0C8
:1016A00037F079EF0BF038A058EF0BF05AEF0BF052
:1016B00060EF0BF0D89038300109386E62EF0BF014
:1016C000D890383229A067EF0BF069EF0BF06AEF82
:1016D0000BF0388E2C342C322B322A322932372A16
:1016E0003650375CD8A077EF0BF079EF0BF053EF63
:1016F0000BF035BC7EEF0BF080EF0BF0C0EF0BF082
:101700003750D8A486EF0BF088EF0BF092EF0BF078
:10171000000E296E000E2A6E000E2B6E000E2C6E2F
:10172000E1EF0CF02D5029262E502A222F502B228B
:1017300030502C222CA09FEF0BF0A1EF0BF04DEFBF
:101740000CF038A0A6EF0BF0A8EF0BF0AEEF0BF00B
:10175000D89038300109386EB0EF0BF0D89038329D
:1017600029A0B5EF0BF0B7EF0BF0B8EF0BF0388E08
:101770002C342C322B322A322932372A4DEF0CF0FE
:101780002D50295C2E502A582F502B582C50800A4F
:10179000316E3050800A3158D8B0D1EF0BF0D3EF12
:1017A0000BF0FEEF0BF029502D5C316E2A502E58B5
:1017B000326E2B502F58336E2C503058346EFF0E33
:1017C0003124296EFF0E32202A6EFF0E33202B6E3D
:1017D000FF0E34202C6E800E351A386C3850D8A489
:1017E000F4EF0BF0F6EF0BF006EF0CF0010E2926EC
:1017F000000E2A222B222C2206EF0CF02D50295EFF
:101800002E502A5A2F502B5A30502C5A29502A1019
:101810002B102C10D8A40FEF0CF011EF0CF046EFAA
:101820000CF03850D8A417EF0CF019EF0CF046EF7D
:101830000CF0000E296E000E2A6E000E2B6E000EAC
:101840002C6EE1EF0CF0D89029362A362B362C3648
:1018500038AE2DEF0CF02FEF0CF030EF0CF02980AC
:1018600038A035EF0CF037EF0CF03BEF0CF0D880E0
:1018700038363DEF0CF0D89038363750D8B443EFB7
:101880000CF045EF0CF046EF0CF037062BAE4BEFAB
:101890000CF04DEF0CF023EF0CF0000E366E38AE6E
:1018A00054EF0CF056EF0CF06EEF0CF038C031F046
:1018B0007F0E3116D8B45FEF0CF061EF0CF065EFDE
:1018C0000CF0010E366E6EEF0CF029A06AEF0CF0F2
:1018D0006CEF0CF06EEF0CF061EF0CF03650D8B4FA
:1018E00074EF0CF076EF0CF0A1EF0CF0010E29264E
:1018F000000E2A222B222C222CA081EF0CF083EF49
:101900000CF0A1EF0CF029C031F02AC032F02BC04E
:1019100033F02CC034F0343434323332323231329A
:1019200031C029F032C02AF033C02BF034C02CF083
:101930003728D8B49EEF0CF0A0EF0CF0A1EF0CF01C
:10194000372A3728D8B4A7EF0CF0A9EF0CF0B1EF85
:101950000CF03750D8A4AFEF0CF0B1EF0CF0C3EFA0
:101960000CF0000E296E000E2A6E000E2B6E000E7B
:101970002C6E3750D8A4BFEF0CF0C1EF0CF0C3EFC2
:101980000CF0000E356E37A0C8EF0CF0CAEF0CF06B
:10199000CDEF0CF02B8ECEEF0CF02B9ED890373085
:1019A0002C6E35AED6EF0CF0D8EF0CF0D9EF0CF072
:1019B0002C8E29C029F02AC02AF02BC02BF02CC075
:1019C0002CF012001350800B206E13501324276E3E
:1019D00012AEEDEF0CF0EFEF0CF0F0EF0CF0278013
:1019E0002750D8B4F6EF0CF0F8EF0CF00DEF0DF037
:1019F0002728D8A4FEEF0CF000EF0DF008EF0DF053
:101A0000000E106E000E116E000E126E000E136EA0
:101A1000128E000E136E15EF0DF0000E106E000EFC
:101A2000116E000E126E000E136E1750800B201AEE
:101A300017501724286E16AE20EF0DF022EF0DF090
:101A400023EF0DF028802850D8B429EF0DF02BEFAC
:101A50000DF040EF0DF02828D8A431EF0DF033EF52
:101A60000DF03BEF0DF0000E146E000E156E000E23
:101A7000166E000E176E168E000E176E48EF0DF0E4
:101A8000000E146E000E156E000E166E000E176E10
:101A90001450151016101710D8A451EF0DF053EF75
:101AA0000DF06BEF0DF0000E106E000E116E000EBB
:101AB000126E000E136E800E12127F0E1312205043
:101AC000131210C010F011C011F012C012F013C0A8
:101AD00013F0AEEF0EF02750D8A471EF0DF073EFB6
:101AE0000DF07DEF0DF0000E106E000E116E000E69
:101AF000126E000E136EAEEF0EF0285027C018F0D5
:101B0000196A185E000E195A7F0E1824216E000EF5
:101B10001920226E10C01CF011C01DF012C01EF062
:101B200013C01FF0000E106E000E116E000E126E2C
:101B3000000E136E000E236E000E246E000E256E36
:101B4000000E266E000E286EDEEF0DF02850D8B481
:101B5000ACEF0DF0AEEF0DF0C5EF0DF0D8901C36E8
:101B60001D361E361F36D8901036113612361336F3
:101B700026AEBDEF0DF0BFEF0DF0C0EF0DF0108001
:101B8000D890233624362536263614501C5C155042
:101B90001D5816501E5817501F58D8A0D2EF0DF0E0
:101BA000D4EF0DF0DDEF0DF0268C14501C5E1550B7
:101BB0001D5A16501E5A17501F5A282A190E2864EB
:101BC000E4EF0DF0E6EF0DF0A6EF0DF01C501D1048
:101BD0001E101F10D8B4EFEF0DF0F1EF0DF009EF6C
:101BE0000EF0238009EF0EF0D89010361136123621
:101BF000133626AEFEEF0DF000EF0EF001EF0EF003
:101C00001080D89023362436253626362106D8A0D3
:101C1000220612AE0EEF0EF010EF0EF0F4EF0DF004
:101C2000000E286E26AE17EF0EF019EF0EF03DEF06
:101C30000EF0FF0E2314186EFF0E2414196EFF0E03
:101C400025141A6E7F0E26141B6E185019101A10C8
:101C50001B10D8B42EEF0EF030EF0EF034EF0EF074
:101C6000010E286E3DEF0EF010A039EF0EF03BEFA5
:101C70000EF03DEF0EF030EF0EF02850D8B443EFE9
:101C80000EF045EF0EF069EF0EF0010E1026000E7B
:101C900011221222132213A050EF0EF052EF0EF079
:101CA00069EF0EF010C018F011C019F012C01AF050
:101CB00013C01BF01B341B321A321932183218C0F1
:101CC00010F019C011F01AC012F01BC013F0214A15
:101CD000222A22BE74EF0EF0225008E12128D8A05B
:101CE00074EF0EF076EF0EF081EF0EF0000E226E24
:101CF0002168000E106E000E116E000E126E000EA6
:101D0000136E22BE8EEF0EF0225006E12104D8B0F1
:101D10008CEF0EF08EEF0EF09CEF0EF0000E226EA8
:101D2000000E216E000E106E000E116E000E126E6F
:101D3000000E136E000E206E21C027F027A0A3EF27
:101D40000EF0A5EF0EF0A8EF0EF0128EA9EF0EF038
:101D5000129ED8902730136E5FEF0DF01200060030
:101D6000F2A8B5EF0EF0B7EF0EF0C0EF0EF0F2A252
:101D7000BCEF0EF0BEEF0EF0C0EF0EF0AAEC15F0C7
:101D8000F0A6C5EF0EF0C7EF0EF0D0EF0EF0F0A00A
:101D9000CCEF0EF0CEEF0EF0D0EF0EF0A8EC15F079
:101DA000F0A8D5EF0EF0D7EF0EF0E0EF0EF0F0A2B6
:101DB000DCEF0EF0DEEF0EF0E0EF0EF0A6EC15F02B
:101DC000F2A6E5EF0EF0E7EF0EF002EF0FF0F2A053
:101DD000ECEF0EF0EEEF0EF002EF0FF081A8F3EF54
:101DE0000EF0F5EF0EF002EF0FF07A04D8A4FBEF3F
:101DF0000EF0FDEF0EF002EF0FF0000E7A6E000E07
:101E000075EC15F0F2A607EF0FF009EF0FF024EFD5
:101E10000FF0F2A00EEF0FF010EF0FF024EF0FF025
:101E200081B815EF0FF017EF0FF024EF0FF07A5095
:101E3000D8A41DEF0FF01FEF0FF024EF0FF0010EED
:101E40007A6E010E75EC15F0F2A629EF0FF02BEF6C
:101E50000FF046EF0FF0F2A030EF0FF032EF0FF07F
:101E600046EF0FF081AA37EF0FF039EF0FF046EF92
:101E70000FF07904D8A43FEF0FF041EF0FF046EFD9
:101E80000FF0000E796E000E68EC15F0F2A64BEF25
:101E90000FF04DEF0FF068EF0FF0F2A052EF0FF0E0
:101EA00054EF0FF068EF0FF081BA59EF0FF05BEFCE
:101EB0000FF068EF0FF07950D8A461EF0FF063EFE7
:101EC0000FF068EF0FF0010E796E010E68EC15F05F
:101ED000F2A66DEF0FF06FEF0FF08AEF0FF0F2A0A8
:101EE00074EF0FF076EF0FF08AEF0FF081AC7BEF1D
:101EF0000FF07DEF0FF08AEF0FF07804D8A483EF96
:101F00000FF085EF0FF08AEF0FF0000E786E000EE5
:101F10005BEC15F0F2A68FEF0FF091EF0FF0ACEF46
:101F20000FF0F2A096EF0FF098EF0FF0ACEF0FF07C
:101F300081BC9DEF0FF09FEF0FF0ACEF0FF07850EA
:101F4000D8A4A5EF0FF0A7EF0FF0ACEF0FF0010E44
:101F5000786E010E5BEC15F0F2A6B1EF0FF0B3EF67
:101F60000FF0CEEF0FF0F2A0B8EF0FF0BAEF0FF0D6
:101F7000CEEF0FF081AEBFEF0FF0C1EF0FF0CEEF5D
:101F80000FF07704D8A4C7EF0FF0C9EF0FF0CEEF32
:101F90000FF0000E776E000E4EEC15F0F2A6D3EFA8
:101FA0000FF0D5EF0FF0F0EF0FF0F2A0DAEF0FF037
:101FB000DCEF0FF0F0EF0FF081BEE1EF0FF0E3EF99
:101FC0000FF0F0EF0FF07750D8A4E9EF0FF0EBEF40
:101FD0000FF0F0EF0FF0010E776E010E4EEC15F0E2
:101FE0009DACF5EF0FF0F7EF0FF000EF10F09EACA7
:101FF000FCEF0FF0FEEF0FF000EF10F0ACEC15F07F
:10200000F2AA05EF10F007EF10F010EF10F0F2A4B5
:102010000CEF10F00EEF10F010EF10F0A0EC15F038
:102020007C9211000A6E0A50D8B419EF10F01BEF21
:1020300010F03DEF10F005BE22EF10F020EF10F091
:102040003DEF10F002C006F003C007F004C008F036
:1020500005C009F0061E071E081E091E062A000EEE
:1020600007220822092206C00CF007C00DF008C0A4
:102070000EF009C00FF045EF10F002C00CF003C0E5
:102080000DF004C00EF005C00FF002500310041054
:102090000510D8A44EEF10F050EF10F05AEF10F0EA
:1020A000000E026E000E036E000E046E000E056E32
:1020B000EBEF10F0960E0B6E64EF10F00B2AD89039
:1020C0000F320E320D320C32000E0C14066E000E62
:1020D0000D14076E000E0E14086EFE0E0F14096E1E
:1020E0000650071008100910D8A479EF10F07BEF04
:1020F00010F05EEF10F089EF10F00B2A010E0C26A5
:10210000000E0D220E220F22D8900F320E320D3209
:102110000C32000E0C14066E000E0D14076E000E2D
:102120000E14086EFF0E0F14096E065007100810EB
:102130000910D8A49EEF10F0A0EF10F07DEF10F082
:10214000A8EF10F00B06D8900C360D360E360F3671
:102150000EBEADEF10F0AFEF10F0B7EF10F0020EC3
:102160000B60B5EF10F0B7EF10F0A2EF10F00BB06E
:10217000BCEF10F0BEEF10F0BFEF10F00E9ED89045
:102180000B320BC006F0076A086A096A06C009F03C
:10219000086A076A066A06500C1207500D120850AA
:1021A0000E1209500F120A50D8B4D9EF10F0DBEF1D
:1021B00010F0E3EF10F005BEE2EF10F0E0EF10F0EA
:1021C000E3EF10F00F8E0CC002F00DC003F00EC054
:1021D00004F00FC005F01200010E0A6E0250031049
:1021E000D8B4F5EF10F0F7EF10F008EF11F002C0DF
:1021F000D9FF03C0DAFFDF30E832E832070B046EA4
:10220000070E046406EF11F008EF11F06BEF11F008
:10221000000E0A6E8CEF11F002C0D9FF03C0DAFF86
:10222000DF30E832E832070B046E010E056E042A37
:102230001CEF11F0D8900536042E1AEF11F005505E
:10224000FF0A066E02C0D9FF03C0DAFFDF50070B9A
:10225000076E0750020D6D0EF324D96E000EF420A8
:10226000DA6EDECF08F0DDCF09F008C0D9FF09C073
:10227000DAFF0650DF168CEF11F002C0D9FF03C061
:10228000DAFFDF30E832E832070B046E010E056E2C
:10229000042A4DEF11F0D8900536042E4BEF11F0C3
:1022A00002C0D9FF03C0DAFFDF50070B066E0650ED
:1022B000020D6D0EF324D96E000EF420DA6EDECF1F
:1022C00007F0DDCF08F007C0D9FF08C0DAFF0550DE
:1022D000DF128CEF11F002C0D9FF03C0DAFFDFBCC0
:1022E00074EF11F077EF11F0010E78EF11F0000E9E
:1022F000046E056A0550000AD8B481EF11F008EFAA
:1023000011F00450000AD8B40CEF11F0010AD8B44F
:102310003DEF11F008EF11F00A501200010E0B6EA4
:1023200002500310D8B497EF11F099EF11F0AAEF13
:1023300011F002C0D9FF03C0DAFFDF30E832E83223
:10234000070B056E070E0564A8EF11F0AAEF11F058
:102350000DEF12F0000E0B6E22EF12F002C0D9FF4B
:1023600003C0DAFFDF30E832E832070B056E010EFA
:10237000066E052ABEEF11F0D8900636052EBCEF8A
:1023800011F00650FF0A076E02C0D9FF03C0DAFF42
:10239000DF50070B086E0850020DA00EF324D96E13
:1023A000000EF420DA6EDECF09F0DDCF0AF009C0AE
:1023B000D9FF0AC0DAFF0750DF1622EF12F002C081
:1023C000D9FF03C0DAFFDF30E832E832070B056ED1
:1023D000010E066E052AEFEF11F0D8900636052E95
:1023E000EDEF11F002C0D9FF03C0DAFFDF50070B99
:1023F000076E0750020DA00EF324D96E000EF420D4
:10240000DA6EDECF08F0DDCF09F008C0D9FF09C0D1
:10241000DAFF0650DF1222EF12F00450056E066A52
:102420000650000AD8B417EF12F0AAEF11F00550C9
:10243000000AD8B4AEEF11F0010AD8B4DFEF11F002
:10244000AAEF11F00B501200043405340B6E0B5040
:10245000D8A42DEF12F02FEF12F039EF12F0000E8A
:10246000026E000E036E000E046E000E056EA6EFE7
:1024700012F002C006F003C007F004C008F005C067
:1024800009F0200E49EF12F0D890093208320732D5
:102490000632E82E44EF12F006500A6E048EFF0E4C
:1024A0000216FF0E0316FF0E0416000E0516960EFA
:1024B0000B5E0BBE60EF12F05EEF12F076EF12F0E3
:1024C0000B50800A970FD8B068EF12F06AEF12F045
:1024D0006CEF12F02FEF12F0D89005320432033275
:1024E00002320B3E6CEF12F08EEF12F01F0E0B64F7
:1024F0007CEF12F07EEF12F086EF12F02FEF12F069
:10250000D89002360336043605360B060B50D8A495
:102510008CEF12F08EEF12F080EF12F00A50D8B468
:1025200094EF12F096EF12F09EEF12F0051E041ECB
:10253000031E026C000E03220422052202C002F0D8
:1025400003C003F004C004F005C005F01200800EC3
:102550000001866F250E876F000E886F000E896F51
:10256000000E8A6F8C8B8C9F8C9D8B8B8B9F8B9D91
:10257000000E926F000E936F000E946F000E956F19
:10258000000E906F000E916F000E8E6F000E8F6F19
:10259000860E456E000E466E0DEC15F07B0E106E2D
:1025A000000E116E37EC14F06C0E026E000E036E0E
:1025B00034EC15F0486E4804D8A4E1EF12F0E3EFD4
:1025C00012F0D4EF12F0610E6C18D8A4EAEF12F0FA
:1025D000ECEF12F0FEEF12F07B0E0C6E000E0D6EA3
:1025E000B7EC13F01A0E036E100E046E000E066E9A
:1025F000070E056E75EC14F0D4EF12F0620E6C1835
:10260000D8A405EF13F007EF13F019EF13F07B0ECA
:102610000C6E000E0D6EF7EC13F0110E036E100E23
:10262000046E000E066E080E056E75EC14F0D4EF05
:1026300012F0D4EF12F007EF00F020EE05F0025098
:10264000D9260350DA22DFAA28EF13F02AEF13F07D
:1026500069EF13F0AC8A20EE05F00250D926035042
:10266000DA22DFAC36EF13F038EF13F03BEF13F064
:102670009D8849EF13F020EE05F00250D926035053
:10268000DA22DFBC46EF13F048EF13F049EF13F006
:102690009D9820EE05F00250D9260350DA22DFAED5
:1026A00054EF13F056EF13F059EF13F0AC8C69EFC1
:1026B00013F020EE05F00250D9260350DA22DFBED7
:1026C00064EF13F066EF13F069EF13F0AC9C69EF61
:1026D00013F0120020EE06F00250D9260350DA2241
:1026E000DFAA75EF13F077EF13F0B6EF13F0AB88B6
:1026F00020EE06F00250D9260350DA22DFAC83EF39
:1027000013F085EF13F088EF13F09D8A96EF13F026
:1027100020EE06F00250D9260350DA22DFBC93EFF8
:1027200013F095EF13F096EF13F09D9A20EE06F05C
:102730000250D9260350DA22DFAEA1EF13F0A3EF47
:1027400013F0A6EF13F0AB8CB6EF13F020EE06F00B
:102750000250D9260350DA22DFBEB1EF13F0B3EFF7
:1027600013F0B6EF13F0AB9CB6EF13F01200010EAE
:102770000F6E0C500D10D8A4C0EF13F0C2EF13F081
:10278000C6EF13F0000E0F6EF5EF13F06AC010F0F5
:102790000CC0D9FF0DC0DAFFDF500F0B0E6E1050CA
:1027A0000E18F80B0E18106E0CC0D9FF0DC0DAFF12
:1027B000DF38070B0E6E0E460E460E4610500E18F2
:1027C000C70B0E18106E109C0CC0D9FF0DC0DAFF9D
:1027D000DFAE02D0108E01D0109E100E026E000EE1
:1027E000036E010E046E8EEC11F00F501200010EFC
:1027F0000F6E0C500D10D8A400EF14F002EF14F07F
:1028000006EF14F0000E0F6E35EF14F069C010F0F3
:102810000CC0D9FF0DC0DAFFDF500F0B0E6E105049
:102820000E18F80B0E18106E0CC0D9FF0DC0DAFF91
:10283000DF38070B0E6E0E460E460E4610500E1871
:10284000C70B0E18106E109C0CC0D9FF0DC0DAFF1C
:10285000DFAE02D0108E01D0109E100E026E000E60
:10286000036E000E046E8EEC11F00F501200010E7C
:10287000136E10501110D8A440EF14F042EF14F072
:1028800046EF14F0000E136E73EF14F06BC014F0EB
:1028900010C0D9FF11C0DAFFDF500F0B126E1450B9
:1028A0001218F80B1218146E10C0D9FF11C0DAFFFD
:1028B000DF38070B126E12461246124614501218D9
:1028C000C70B1218146E149C10C0D9FF11C0DAFF88
:1028D000DFAE02D0148E01D0149E140E0C6E000ECA
:1028E0000D6EDDEC14F01350120003500410D8A448
:1028F0007CEF14F07EEF14F082EF14F0000E096EFE
:10290000AAEF14F0000E0B6E000E0A6E000E0B6E96
:10291000000E0A6E9DEF14F00A500324076E0B5050
:102920000420086E07C0F6FF08C0F7FFF86A080029
:10293000F55082EC15F00A4A0B2A05500A5C065045
:102940000B58D8A0A6EF14F0A8EF14F08CEF14F0F9
:10295000010E096E095012001C0EF66E2B0EF76E5A
:10296000000EF86E00EE96F010EE14F00900F5CFB0
:10297000EEFFE550E150FAE1300EF66E2B0EF76EE9
:10298000000EF86E00EE6DF010EE0FF00900F5CFBE
:10299000EEFFE550E150FAE100EE80F0160EEE6A2F
:1029A000E806FDE100EE49F0240EEE6AE806FDE1DE
:1029B0007C907C920001A7EF12F00C500D10D8B45F
:1029C000E4EF14F0E6EF14F0F7EF14F00CC0D9FFC9
:1029D0000DC0DAFFDF30E832E832070B0E6E070E6B
:1029E0000E64F5EF14F0F7EF14F0FBEF14F0000EA7
:1029F0000F6E0BEF15F00CC002F00DC003F0ECEC05
:102A000010F00F6E0CC002F00DC003F0000E046E4B
:102A10008EEC11F00F6E0F50120045504610D8A4E6
:102A200014EF15F016EF15F01AEF15F0000E476EC3
:102A300032EF15F0AB9E948C948E45C002F046C0E8
:102A400003F01DEC13F045C002F046C003F06AEC41
:102A500013F045C039F046C03AF013EC08F0AB8EE5
:102A6000010E476E4750120002500310D8A43BEFEE
:102A700015F03DEF15F03FEF15F04CEF15F09EAA65
:102A800044EF15F046EF15F04CEF15F002C0D9FFFA
:102A900003C0DAFFAECFDFFF000E1200016EF2902E
:102AA0000150D8A456EF15F058EF15F05AEF15F075
:102AB0005AEF15F01200016EF2900150D8A463EFA6
:102AC00015F065EF15F067EF15F067EF15F01200E0
:102AD000016EF2900150D8A470EF15F072EF15F06E
:102AE00074EF15F074EF15F01200016EF2900150C2
:102AF000D8A47DEF15F07FEF15F081EF15F081EF91
:102B000015F01200026E9EA888EF15F08AEF15F0FE
:102B100083EF15F002C0ADFF010E1200800F810F90
:102B2000820F830F840F890F8A0F8B0F8C0F8D0FED
:0F2B3000920F930F940F950F960F010101010360
:102B4000F29449C0D6FF4A50D76E1200F09212009C
:0C2B5000F0901200F29212009E9C120005
:020000040030CA
:0E000000FF02091EFF8181FF0FC00FE00F40BD
:00000001FF
