:0400000007EF00F016
:0A0008007C82A7ED0EF048EF12F025
:10100000003738392F3435362A3132332D23383DE5
:051010002B2569000022
:10101600000E3D6E000E3E6E000E3F6E000E406EE0
:101026002FEF0AF0AC98B896AC9439C0D9FF3AC005
:10103600DAFFDECF02F0DECF03F0DECF04F0DECF44
:1010460005F0000E0AEC10F002C014F003C015F013
:1010560004C016F005C017F0000E106E240E116EB7
:10106600F40E126E4A0E136EDAEC0CF010C041F05C
:1010760011C042F012C043F013C044F0000E146ECB
:10108600000E156E800E166E420E176E41C010F0E1
:1010960042C011F043C012F044C013F0DAEC0CF079
:1010A60010C029F011C02AF012C02BF013C02CF08A
:1010B600000E2D6E000E2E6E800E2F6EBF0E306E41
:1010C6007AEC0AF029C03DF02AC03EF02BC03FF072
:1010D6002CC040F05AEF0AF0AC98B896AC8439C0F0
:1010E600D9FF3AC0DAFFDECF02F0DECF03F0DECF63
:1010F60004F0DECF05F0000E0AEC10F002C014F08A
:1011060003C015F004C016F005C017F0000E106EEF
:10111600240E116EF40E126E4A0E136EDAEC0CF0FB
:1011260010C041F011C042F012C043F013C044F0A9
:10113600000E146E000E156E800E166E410E176EA2
:1011460041C010F042C011F043C012F044C013F089
:10115600DAEC0CF010C029F011C02AF012C02BF006
:1011660013C02CF0000E2D6E000E2E6E800E2F6E0C
:10117600BF0E306E7AEC0AF029C03DF02AC03EF070
:101186002BC03FF02CC040F05AEF0AF0AC98B8865E
:10119600AC9439C0D9FF3AC0DAFFDECF02F0DECF19
:1011A60003F0DECF04F0DECF05F0000E0AEC10F0FF
:1011B60002C014F003C015F004C016F005C017F005
:1011C600000E106E240E116EF40E126E4A0E136E81
:1011D600DAEC0CF010C041F011C042F012C043F03E
:1011E60013C044F0000E146E000E156E800E166EBF
:1011F600410E176E41C010F042C011F043C012F00C
:1012060044C013F0DAEC0CF010C029F011C02AF03B
:1012160012C02BF013C02CF0000E2D6E000E2E6E99
:10122600800E2F6EBF0E306E7AEC0AF029C03DF0AC
:101236002AC03EF02BC03FF02CC040F05AEF0AF017
:10124600AC98B886AC8439C0D9FF3AC0DAFFDECF95
:1012560002F0DECF03F0DECF04F0DECF05F0000EA5
:101266000AEC10F002C014F003C015F004C016F02A
:1012760005C017F0000E106E240E116EF40E126EDD
:101286004A0E136EDAEC0CF010C041F011C042F0B9
:1012960012C043F013C044F0000E146E000E156E1B
:1012A600800E166E400E176E41C010F042C011F04F
:1012B60043C012F044C013F0DAEC0CF010C029F071
:1012C60011C02AF012C02BF013C02CF0000E2D6EA8
:1012D600000E2E6E800E2F6EBF0E306E7AEC0AF068
:1012E60029C03DF02AC03EF02BC03FF02CC040F094
:1012F6005AEF0AF0AC88B88639C0D9FF3AC0DAFF8F
:10130600DECF02F0DECF03F0DECF04F0DECF05F055
:10131600000E0AEC10F002C014F003C015F004C071
:1013260016F005C017F0000E106E240E116EF40EA6
:10133600126E4A0E136EDAEC0CF010C041F011C0BA
:1013460042F012C043F013C044F0000E146E000EBB
:10135600156E800E166E400E176E41C010F042C01C
:1013660011F043C012F044C013F0DAEC0CF010C0D8
:1013760029F011C02AF012C02BF013C02CF0000E79
:101386002D6E000E2E6E800E2F6EBF0E306E7AEC16
:101396000AF029C03DF02AC03EF02BC03FF02CC019
:1013A60040F05AEF0AF0AC88B89639C0D9FF3AC077
:1013B600DAFFDECF02F0DECF03F0DECF04F0DECFC1
:1013C60005F0000E0AEC10F002C014F003C015F090
:1013D60004C016F005C017F0000E106E240E116E34
:1013E600F40E126E4A0E136EDAEC0CF010C041F0D9
:1013F60011C042F012C043F013C044F0000E146E48
:10140600000E156E800E166E400E176E41C010F05F
:1014160042C011F043C012F044C013F0DAEC0CF0F5
:1014260010C029F011C02AF012C02BF013C02CF006
:10143600000E2D6E000E2E6E800E2F6EBF0E306EBD
:101446007AEC0AF029C03DF02AC03EF02BC03FF0EE
:101456002CC040F05AEF0AF020EE04F03950D9269D
:101466003A50DA22DF503B6E3C6A3C50000AD8B450
:101476003FEF0AF05AEF0AF03B50000AD8B415EFD6
:1014860008F0010AD8B46FEF08F0030AD8B4C9EF20
:1014960008F0010AD8B423EF09F0070AD8B47DEFA3
:1014A60009F0010AD8B4D6EF09F05AEF0AF03DC0A8
:1014B60002F03EC003F03FC004F040C005F0E4EC8B
:1014C60010F00250AF6E3DC002F03EC003F03FC0C8
:1014D60004F040C005F0E4EC10F003C002F004C0D4
:1014E60003F005C004F0056A0250B06E12002C50DD
:1014F600800B356E2C502C24376E2BAE85EF0AF000
:1015060087EF0AF088EF0AF037803750D8B48EEFAD
:101516000AF090EF0AF0A5EF0AF03728D8A496EF64
:101526000AF098EF0AF0A0EF0AF0000E296E000EFE
:101536002A6E000E2B6E000E2C6E2B8E000E2C6E5D
:10154600ADEF0AF0000E296E000E2A6E000E2B6E0D
:10155600000E2C6E3050800B366E35503618D8B4CF
:10156600B7EF0AF0B9EF0AF0BAEF0AF0358C30504F
:101576003024366E2FAEC2EF0AF0C4EF0AF0C5EF84
:101586000AF036803650D8B4CBEF0AF0CDEF0AF029
:10159600E2EF0AF03628D8A4D3EF0AF0D5EF0AF026
:1015A600DDEF0AF0000E2D6E000E2E6E000E2F6E71
:1015B600000E306E2F8E000E306EEAEF0AF0000E2F
:1015C6002D6E000E2E6E000E2F6E000E306E3750F2
:1015D600365CD8B0F1EF0AF0F3EF0AF01AEF0BF031
:1015E60035ACF8EF0AF0FAEF0AF0FCEF0AF0800EDD
:1015F600351A37C038F036C037F038C036F029C053
:1016060038F02DC029F038C02DF02AC038F02EC091
:101616002AF038C02EF02BC038F02FC02BF038C07F
:101626002FF02CC038F030C02CF038C030F0000E4F
:10163600386E375036C031F0326A315E000E325A9B
:1016460032BE2FEF0BF0325009E11A0E315CD8A0F2
:101656002FEF0BF031EF0BF068EF0BF029502A104B
:101666002B102C10D8A43AEF0BF03DEF0BF0010E27
:101676003EEF0BF0000E386E000E296E000E2A6E3D
:10168600000E2B6E000E2C6E36C037F071EF0BF08D
:1016960038A050EF0BF052EF0BF058EF0BF0D8904C
:1016A60038300109386E5AEF0BF0D890383229A03D
:1016B6005FEF0BF061EF0BF062EF0BF0388E2C341E
:1016C6002C322B322A322932372A3650375CD8A0B0
:1016D6006FEF0BF071EF0BF04BEF0BF035BC76EFC5
:1016E6000BF078EF0BF0B8EF0BF03750D8A47EEF85
:1016F6000BF080EF0BF08AEF0BF0000E296E000E58
:101706002A6E000E2B6E000E2C6ED9EF0CF02D50AB
:1017160029262E502A222F502B2230502C222CA044
:1017260097EF0BF099EF0BF045EF0CF038A09EEF1A
:101736000BF0A0EF0BF0A6EF0BF0D89038300109B4
:10174600386EA8EF0BF0D890383229A0ADEF0BF029
:10175600AFEF0BF0B0EF0BF0388E2C342C322B326F
:101766002A322932372A45EF0CF02D50295C2E50AB
:101776002A582F502B582C50800A316E3050800A30
:101786003158D8B0C9EF0BF0CBEF0BF0F6EF0BF0FA
:1017960029502D5C316E2A502E58326E2B502F5800
:1017A600336E2C503058346EFF0E3124296EFF0EE6
:1017B60032202A6EFF0E33202B6EFF0E34202C6E45
:1017C600800E351A386C3850D8A4ECEF0BF0EEEFDB
:1017D6000BF0FEEF0BF0010E2926000E2A222B221B
:1017E6002C22FEEF0BF02D50295E2E502A5A2F5038
:1017F6002B5A30502C5A29502A102B102C10D8A4B2
:1018060007EF0CF009EF0CF03EEF0CF03850D8A4BF
:101816000FEF0CF011EF0CF03EEF0CF0000E296EFE
:10182600000E2A6E000E2B6E000E2C6ED9EF0CF0F9
:10183600D89029362A362B362C3638AE25EF0CF0C2
:1018460027EF0CF028EF0CF0298038A02DEF0CF0D4
:101856002FEF0CF033EF0CF0D880383635EF0CF064
:10186600D89038363750D8B43BEF0CF03DEF0CF03B
:101876003EEF0CF037062BAE43EF0CF045EF0CF0C5
:101886001BEF0CF0000E366E38AE4CEF0CF04EEF40
:101896000CF066EF0CF038C031F07F0E3116D8B47C
:1018A60057EF0CF059EF0CF05DEF0CF0010E366EB1
:1018B60066EF0CF029A062EF0CF064EF0CF066EF17
:1018C6000CF059EF0CF03650D8B46CEF0CF06EEF0C
:1018D6000CF099EF0CF0010E2926000E2A222B227D
:1018E6002C222CA079EF0CF07BEF0CF099EF0CF08A
:1018F60029C031F02AC032F02BC033F02CC034F0AE
:101906003434343233323232313231C029F032C0DB
:101916002AF033C02BF034C02CF03728D8B496EF19
:101926000CF098EF0CF099EF0CF0372A3728D8B462
:101936009FEF0CF0A1EF0CF0A9EF0CF03750D8A4F4
:10194600A7EF0CF0A9EF0CF0BBEF0CF0000E296E20
:10195600000E2A6E000E2B6E000E2C6E3750D8A489
:10196600B7EF0CF0B9EF0CF0BBEF0CF0000E356ED4
:1019760037A0C0EF0CF0C2EF0CF0C5EF0CF02B8EC9
:10198600C6EF0CF02B9ED89037302C6E35AECEEFCE
:101996000CF0D0EF0CF0D1EF0CF02C8E29C029F012
:1019A6002AC02AF02BC02BF02CC02CF012001350AA
:1019B600800B206E13501324276E12AEE5EF0CF049
:1019C600E7EF0CF0E8EF0CF027802750D8B4EEEFE5
:1019D6000CF0F0EF0CF005EF0DF02728D8A4F6EF89
:1019E6000CF0F8EF0CF000EF0DF0000E106E000E8C
:1019F600116E000E126E000E136E128E000E136E16
:101A06000DEF0DF0000E106E000E116E000E126E30
:101A1600000E136E1750800B201A17501724286ECD
:101A260016AE18EF0DF01AEF0DF01BEF0DF0288033
:101A36002850D8B421EF0DF023EF0DF038EF0DF05C
:101A46002828D8A429EF0DF02BEF0DF033EF0DF079
:101A5600000E146E000E156E000E166E000E176E3A
:101A6600168E000E176E40EF0DF0000E146E000E6F
:101A7600156E000E166E000E176E14501510161009
:101A86001710D8A449EF0DF04BEF0DF063EF0DF0F2
:101A9600000E106E000E116E000E126E000E136E0A
:101AA600800E12127F0E13122050131210C010F067
:101AB60011C011F012C012F013C013F0A6EF0EF011
:101AC6002750D8A469EF0DF06BEF0DF075EF0DF010
:101AD600000E106E000E116E000E126E000E136ECA
:101AE600A6EF0EF0285027C018F0196A185E000EEF
:101AF600195A7F0E1824216E000E1920226E10C06E
:101B06001CF011C01DF012C01EF013C01FF0000E15
:101B1600106E000E116E000E126E000E136E000E89
:101B2600236E000E246E000E256E000E266E000E2D
:101B3600286ED6EF0DF02850D8B4A4EF0DF0A6EF1E
:101B46000DF0BDEF0DF0D8901C361D361E361F3633
:101B5600D890103611361236133626AEB5EF0DF084
:101B6600B7EF0DF0B8EF0DF01080D890233624367D
:101B76002536263614501C5C15501D5816501E5816
:101B860017501F58D8A0CAEF0DF0CCEF0DF0D5EFC7
:101B96000DF0268C14501C5E15501D5A16501E5AF8
:101BA60017501F5A282A190E2864DCEF0DF0DEEFB5
:101BB6000DF09EEF0DF01C501D101E101F10D8B416
:101BC600E7EF0DF0E9EF0DF001EF0EF0238001EFE6
:101BD6000EF0D890103611361236133626AEF6EFC2
:101BE6000DF0F8EF0DF0F9EF0DF01080D8902336D8
:101BF6002436253626362106D8A0220612AE06EF52
:101C06000EF008EF0EF0ECEF0DF0000E286E26AE8B
:101C16000FEF0EF011EF0EF035EF0EF0FF0E23145E
:101C2600186EFF0E2414196EFF0E25141A6E7F0E01
:101C360026141B6E185019101A101B10D8B426EF54
:101C46000EF028EF0EF02CEF0EF0010E286E35EF99
:101C56000EF010A031EF0EF033EF0EF035EF0EF070
:101C660028EF0EF02850D8B43BEF0EF03DEF0EF003
:101C760061EF0EF0010E1026000E11221222132221
:101C860013A048EF0EF04AEF0EF061EF0EF010C011
:101C960018F011C019F012C01AF013C01BF01B3453
:101CA6001B321A321932183218C010F019C011F04E
:101CB6001AC012F01BC013F0214A222A22BE6CEF72
:101CC6000EF0225008E12128D8A06CEF0EF06EEF3E
:101CD6000EF079EF0EF0000E226E2168000E106EE7
:101CE600000E116E000E126E000E136E22BE86EFEF
:101CF6000EF0225006E12104D8B084EF0EF086EFF4
:101D06000EF094EF0EF0000E226E000E216E000E05
:101D1600106E000E116E000E126E000E136E000E87
:101D2600206E21C027F027A09BEF0EF09DEF0EF04E
:101D3600A0EF0EF0128EA1EF0EF0129ED890273073
:101D4600136E57EF0DF012000600F2A8ADEF0EF07D
:101D5600AFEF0EF0B8EF0EF0F2A2B4EF0EF0B6EF62
:101D66000EF0B8EF0EF0FBEC12F0F0A6BDEF0EF0A1
:101D7600BFEF0EF0C8EF0EF0F0A0C4EF0EF0C6EF06
:101D86000EF0C8EF0EF0F9EC12F0F0A8CDEF0EF061
:101D9600CFEF0EF0D8EF0EF0F0A2D4EF0EF0D6EFA4
:101DA6000EF0D8EF0EF0F7EC12F0F2A6DDEF0EF023
:101DB600DFEF0EF0FAEF0EF0F2A0E4EF0EF0E6EF32
:101DC6000EF0FAEF0EF081A8EBEF0EF0EDEF0EF04D
:101DD600FAEF0EF07B04D8A4F3EF0EF0F5EF0EF059
:101DE600FAEF0EF0000E7B6E000EC7EC12F0F2A6B4
:101DF600FFEF0EF001EF0FF01CEF0FF0F2A006EF71
:101E06000FF008EF0FF01CEF0FF081B80DEF0FF099
:101E16000FEF0FF01CEF0FF07B50D8A415EF0FF06B
:101E260017EF0FF01CEF0FF0010E7B6E010EC7ECE3
:101E360012F0F2A621EF0FF023EF0FF03EEF0FF0B6
:101E4600F2A028EF0FF02AEF0FF03EEF0FF081AA75
:101E56002FEF0FF031EF0FF03EEF0FF07A04D8A41A
:101E660037EF0FF039EF0FF03EEF0FF0000E7A6EFE
:101E7600000EBAEC12F0F2A643EF0FF045EF0FF0AA
:101E860060EF0FF0F2A04AEF0FF04CEF0FF060EFAB
:101E96000FF081BA51EF0FF053EF0FF060EF0FF034
:101EA6007A50D8A459EF0FF05BEF0FF060EF0FF008
:101EB600010E7A6E010EBAEC12F0F2A665EF0FF083
:101EC60067EF0FF082EF0FF0F2A06CEF0FF06EEFFE
:101ED6000FF082EF0FF081AC73EF0FF075EF0FF09C
:101EE60082EF0FF07904D8A47BEF0FF07DEF0FF0AF
:101EF60082EF0FF0000E796E000EADEC12F0F2A636
:101F060087EF0FF089EF0FF0A4EF0FF0F2A08EEF3E
:101F16000FF090EF0FF0A4EF0FF081BC95EF0FF0EC
:101F260097EF0FF0A4EF0FF07950D8A49DEF0FF0C4
:101F36009FEF0FF0A4EF0FF0010E796E010EADECDE
:101F460012F0F2A6A9EF0FF0ABEF0FF0C6EF0FF00D
:101F5600F2A0B0EF0FF0B2EF0FF0C6EF0FF081AEC8
:101F6600B7EF0FF0B9EF0FF0C6EF0FF07804D8A473
:101F7600BFEF0FF0C1EF0FF0C6EF0FF0000E786E57
:101F8600000EA0EC12F0F2A6CBEF0FF0CDEF0FF0A3
:101F9600E8EF0FF0F2A0D2EF0FF0D4EF0FF0E8EF7A
:101FA6000FF081BED9EF0FF0DBEF0FF0E8EF0FF087
:101FB6007850D8A4E1EF0FF0E3EF0FF0E8EF0FF061
:101FC600010E786E010EA0EC12F09DACEDEF0FF055
:101FD600EFEF0FF0F8EF0FF09EACF4EF0FF0F6EF27
:101FE6000FF0F8EF0FF0FDEC12F0F2AAFDEF0FF094
:101FF600FFEF0FF008EF10F0F2A404EF10F006EF79
:1020060010F008EF10F0F1EC12F07C9211000A6E5D
:102016000A50D8B411EF10F013EF10F035EF10F0AE
:1020260005BE1AEF10F018EF10F035EF10F002C0F1
:1020360006F003C007F004C008F005C009F0061E4C
:10204600071E081E091E062A000E0722082209225C
:1020560006C00CF007C00DF008C00EF009C00FF066
:102066003DEF10F002C00CF003C00DF004C00EF0FE
:1020760005C00FF00250031004100510D8A446EF57
:1020860010F048EF10F052EF10F0000E026E000E46
:10209600036E000E046E000E056EE3EF10F0960E52
:1020A6000B6E5CEF10F00B2AD8900F320E320D3209
:1020B6000C32000E0C14066E000E0D14076E000E88
:1020C6000E14086EFE0E0F14096E06500710081047
:1020D6000910D8A471EF10F073EF10F056EF10F05E
:1020E60081EF10F00B2A010E0C26000E0D220E2297
:1020F6000F22D8900F320E320D320C32000E0C1415
:10210600066E000E0D14076E000E0E14086EFF0EFE
:102116000F14096E0650071008100910D8A496EF80
:1021260010F098EF10F075EF10F0A0EF10F00B061E
:10213600D8900C360D360E360F360EBEA5EF10F0C3
:10214600A7EF10F0AFEF10F0020E0B60ADEF10F03E
:10215600AFEF10F09AEF10F00BB0B4EF10F0B6EF4F
:1021660010F0B7EF10F00E9ED8900B320BC006F0B1
:10217600076A086A096A06C009F0086A076A066AF1
:1021860006500C1207500D1208500E1209500F126D
:102196000A50D8B4D1EF10F0D3EF10F0DBEF10F007
:1021A60005BEDAEF10F0D8EF10F0DBEF10F00F8E6F
:1021B6000CC002F00DC003F00EC004F00FC005F015
:1021C6001200043405340B6E0B50D8A4EDEF10F05A
:1021D600EFEF10F0F9EF10F0000E026E000E036E36
:1021E600000E046E000E056E66EF11F002C006F0DA
:1021F60003C007F004C008F005C009F0200E09EF7F
:1022060011F0D8900932083207320632E82E04EF70
:1022160011F006500A6E048EFF0E0216FF0E03160C
:10222600FF0E0416000E0516960E0B5E0BBE20EF73
:1022360011F01EEF11F036EF11F00B50800A970FD8
:10224600D8B028EF11F02AEF11F02CEF11F0EFEFD4
:1022560010F0D89005320432033202320B3E2CEFD6
:1022660011F04EEF11F01F0E0B643CEF11F03EEF34
:1022760011F046EF11F0EFEF10F0D890023603366A
:10228600043605360B060B50D8A44CEF11F04EEF72
:1022960011F040EF11F00A50D8B454EF11F056EF98
:1022A60011F05EEF11F0051E041E031E026C000EF7
:1022B60003220422052202C002F003C003F004C078
:1022C60004F005C005F0120020EE05F00250D926F4
:1022D6000350DA22DFAA72EF11F074EF11F0B3EFB8
:1022E60011F0AC8A20EE05F00250D9260350DA220E
:1022F600DFAC80EF11F082EF11F085EF11F09D88D1
:1023060093EF11F020EE05F00250D9260350DA22A1
:10231600DFBC90EF11F092EF11F093EF11F09D9862
:1023260020EE05F00250D9260350DA22DFAE9EEFEA
:1023360011F0A0EF11F0A3EF11F0AC8CB3EF11F098
:1023460020EE05F00250D9260350DA22DFBEAEEFAA
:1023560011F0B0EF11F0B3EF11F0AC9CB3EF11F048
:10236600120020EE06F00250D9260350DA22DFAA28
:10237600BFEF11F0C1EF11F000EF12F0AB8820EEC5
:1023860006F00250D9260350DA22DFACCDEF11F069
:10239600CFEF11F0D2EF11F09D8AE0EF11F020EEB1
:1023A60006F00250D9260350DA22DFBCDDEF11F029
:1023B600DFEF11F0E0EF11F09D9A20EE06F00250EB
:1023C600D9260350DA22DFAEEBEF11F0EDEF11F074
:1023D600F0EF11F0AB8C00EF12F020EE06F0025099
:1023E600D9260350DA22DFBEFBEF11F0FDEF11F024
:1023F60000EF12F0AB9C00EF12F01200800E00010D
:10240600866F250E876F000E886F000E896F000E8F
:102416008A6F8C8B8C9F8C9D8B8B8B9F8B9D000EDC
:10242600926F000E936F000E946F000E956F000E64
:10243600906F000E916F000E8E6F000E8F6F860EDE
:10244600456E000E466E79EC12F0610ED4EC12F079
:102456000B0E496E260E486E5E0EE82EFED7482EEF
:10246600FCD7492EFAD7620ED4EC12F00B0E496E49
:10247600260E486E5E0EE82EFED7482EFCD7492E55
:10248600FAD728EF12F007EF00F0C00EF66E250E11
:10249600F76E000EF86E00EE96F010EE14F00900DE
:1024A600F5CFEEFFE550E150FAE1D40EF66E250EBB
:1024B600F76E000EF86E00EE6EF010EE0EF00900EC
:1024C600F5CFEEFFE550E150FAE100EE80F0160E92
:1024D600EE6AE806FDE100EE4AF0240EEE6AE80632
:1024E600FDE17C907C92000101EF12F04550461010
:1024F600D8A480EF12F082EF12F086EF12F0000EF1
:10250600476E9EEF12F0AB9E948C948E45C002F0FF
:1025160046C003F067EC11F045C002F046C003F078
:10252600B4EC11F045C039F046C03AF00BEC08F0B7
:10253600AB8E010E476E47501200016EF2900150AD
:10254600D8A4A8EF12F0AAEF12F0ACEF12F0ACEF9D
:1025560012F01200016EF2900150D8A4B5EF12F0FD
:10256600B7EF12F0B9EF12F0B9EF12F01200016EE8
:10257600F2900150D8A4C2EF12F0C4EF12F0C6EFE9
:1025860012F0C6EF12F01200016EF2900150D8A4BC
:10259600CFEF12F0D1EF12F0D3EF12F0D3EF12F02B
:1025A6001200026E9EA8DAEF12F0DCEF12F0D5EF01
:1025B60012F002C0ADFF010E1200800F810F820FD4
:1025C600830F840F890F8A0F8B0F8C0F8D0F920F3D
:1025D600930F940F950F960F01010101F2944AC0D3
:1025E600D6FF4B50D76E1200F0921200F0901200F8
:0825F600F29212009E9C1200FB
:020000040030CA
:0E000000FF02091EFF8181FF0FC00FE00F40BD
:00000001FF
